:100000000C9480050C94C9050C94C9050C94C90581
:100010000C94C9050C94C9050C94C9050C94C90528
:100020000C94C9050C94C9050C946A2A0C943C2BB9
:100030000C9464250C94C9050C94C9050C94C9054D
:100040000C94C9050C94C9050C94C9050C94C905F8
:100050000C94C9050C94BD250C94C9050C94C905D4
:100060000C94C9050C94C9050C94C9050C94C905D8
:100070000C94C9050C94C9050C94C9050C94C905C8
:100080000C94C9050C94C9050C94C9050C94C905B8
:100090000C94A7180C94C9050C94C9050C94C905B7
:1000A0000C94C9050C94C9050C94C905B113B4137B
:1000B000BC13C113C613CB13D013D513DA13DF133C
:1000C000E413E913EB13EE13F113F413F713FA131C
:1000D000FC130114011C011C331C331C801CA71DC4
:1000E000A71DA71D9E1C371D481D481D381E381E04
:1000F0004A1E4A1E411E4A1E4A1E4A1E381E381EED
:10010000461E4A1E4A1E461EA92BD02BC82CD02B99
:10011000C82C1C2C3F2CC82C962CA52C00000000B1
:1001200000003E5B4F5B3E003E6B4F6B3E001C3E53
:100130007C3E1C00183C7E3C18001C577D571C0060
:100140001C5E7F5E1C0000183C180000FFE7C3E740
:10015000FF00001824180000FFE7DBE7FF0030482D
:100160003A060E00262979292600407F050507005A
:10017000407F05253F005A3CE73C5A007F3E1C1C4F
:100180000800081C1C3E7F0014227F2214005F5FC1
:10019000005F5F0006097F017F00006689956A00A5
:1001A00060606060600094A2FFA2940008047E0476
:1001B000080010207E20100008082A1C0800081CD7
:1001C0002A0808001E10101010000C1E0C1E0C0037
:1001D00030383E383000060E3E0E060000000000AB
:1001E000000000005F000000000700070000147F0F
:1001F000147F1400242A7F2A12002313086462004B
:10020000364956205000000807030000001C224118
:1002100000000041221C00002A1C7F1C2A00080844
:100220003E08080000807030000008080808080038
:100230000000606000002010080402003E514945A3
:100240003E0000427F40000072494949460021417A
:10025000494D33001814127F1000274545453900D9
:100260003C4A4949310041211109070036494949B1
:100270003600464949291E000000140000000040D5
:100280003400000000081422410014141414140057
:100290000041221408000201590906003E415D593F
:1002A0004E007C1211127C007F49494936003E41C4
:1002B000414122007F4141413E007F49494941007F
:1002C0007F09090901003E41415173007F08080878
:1002D0007F0000417F4100002040413F01007F0836
:1002E000142241007F40404040007F021C027F00FA
:1002F0007F0408107F003E4141413E007F0909090B
:1003000006003E4151215E007F0919294600264919
:100310004949320003017F0103003F4040403F0054
:100320001F2040201F003F4038403F006314081446
:1003300063000304780403006159494D4300007FC2
:1003400041414100020408102000004141417F006A
:10035000040201020400404040404000000307083E
:1003600000002054547840007F284444380038442A
:1003700044442800384444287F003854545418001A
:1003800000087E0902001824241C78007F08040459
:10039000780000447D4000002040403D00007F1078
:1003A0002844000000417F4000007C04780478006D
:1003B0007C08040478003844444438007C18242421
:1003C0001800182424187C007C08040408004854F1
:1003D0005454240004043F4424003C4040207C004A
:1003E0001C2040201C003C4030403C004428102889
:1003F00044004C9090907C004464544C44000008AD
:10040000364100000000770000000041360800007F
:100410000201020402003C2623263C0000000000EA
:10042000000000000000000000000000C0E0F0F844
:10043000F81800C0F0FCFEFFFFFFFFFFFFFF7E008B
:10044000000000000000000080C0E0E0E0E0E0E02C
:10045000E0E0C0800000000080C0E0E0E0E0E0E01C
:10046000E0E0C080000000E0E0C0C0E0E0E0E000CC
:1004700000E0E0C0C0E0E0E0E0E0C080000000009C
:1004800080C0E0E0E0E0E0E0E0E0C08000000000EC
:1004900000000000000000000000E0F0F0F0E0ECE0
:1004A000EEF7F37020007C7C7C7E007E7E7E7F7F7A
:1004B0007F000080C0E07E5B4F5BFEC00000C0009C
:1004C000DCD7DEDEDED7DC00C0000000000000006C
:1004D000000000000000000000000000000000001C
:1004E0000000000000F8FCFEFFE000FFFFFFFFFF40
:1004F000FF80FFFFFFFFFFFFFFFFFF1F070100005F
:1005000000000000000000FFFFFF8100000000006D
:100510000081C3C3C30000FFFFFF81000000000093
:100520000081FFFFFF0000FFFFFF0100000000004F
:1005300000FFFFFF010000000001FFFFFF0000FFC0
:10054000FFFF9D1C1C1C1C1C1C9DDFDFDF0000002E
:10055000000000000000000000000F1F3F7F7F7FB1
:100560007F7F3F1E0C001F1F1F3F003F3F3F7F7FCD
:100570007F00307B7F7830202030787F3B00030085
:100580000F7F0F0F0F7F0F0003000000000000001F
:10059000000000000000000000000000000000005B
:1005A0000000000000030F1F3F3F3F3F1F1F3F3F62
:1005B0007F7F7F3F3F1F3F7F7F7F7F7C7878381C26
:1005C0000F000000000000000103070707070707EE
:1005D00007070301000000000103070707070707DB
:1005E00007070301000000070707000000000000E4
:1005F00000070707000000000000070707000000D1
:1006000001030707070707070707030100000000AA
:1006100000000000000000000000000000000000DA
:1006200000000000000000000000000000000000CA
:1006300000000000000000000000000000000000BA
:1006400000000000000000000000000000000000AA
:10065000000000000000000000000000165C1A000E
:10066000150000001C000C0013004C0014000800D2
:1006700017002A00180012002A00AE002B61160095
:1006800009000A000B000E00284352000400070076
:100690000A0034000D000F0028003102E1001B00A9
:1006A00019002C4211003664E50051001D000600BF
:1006B00005002C411000376850004F0035001F0026
:1006C0002100000023002500270001001E0020005B
:1006D00022000100240026000100010001002E007C
:1006E0000100010052005100010001002D00310005
:1006F0000100330050004F00010001000100010023
:1007000001000100010001000100010001000100E1
:1007100001000100010038000100010001001F027A
:100720002102000024022602010001001E02200214
:1007300022022302250227020100010001002E02ED
:100740000100010001000100010001002D02310241
:10075000010033020100010001000100010001005D
:100760000100010001000100010001000100010081
:10077000010001000100380201000100005C3B00A3
:100780003D00000040004200440001003A003C00EF
:100790003E003F0041004300450001000100010010
:1007A0000100010001000100010001000100010041
:1007B0000100010001000100010001000100010031
:1007C0000100010001000100010001000100010021
:1007D00001000100010001000100010032190A00BE
:1007E000047F3F1F643214643214783C1E1E140AC6
:1007F000052223252628292A2C2D2F303233353661
:10080000383A3B3D3E4042434547494A4C4E5051A1
:10081000535557595A5C5E6062646668696B6D6FC8
:1008200071737577797B7D7F81838587898A8C8ECB
:1008300090929496989A9C9E9FA1A3A5A7A8AAACD3
:10084000AEAFB1B3B4B6B8B9BBBCBEBFC1C2C3C50D
:10085000C6C7C9CACBCCCDCED0D1D2D2D3D4D5D6AF
:10086000D7D7D8D9D9DADADBDBDBDCDCDCDCDCDDE2
:10087000DDDDDDDCDCDCDCDCDBDBDBDADAD9D9D8C6
:10088000D7D7D6D5D4D3D2D2D1D0CECDCCCBCAC95E
:10089000C7C6C5C3C2C1BFBEBCBBB9B8B6B4B3B18D
:1008A000AFAEACAAA8A7A5A3A19F9E9C9A98969428
:1008B00092908E8C8A89878583817F7D7B797775FD
:1008C00073716F6D6B6968666462605E5C5A5957DC
:1008D000555351504E4C4A4947454342403E3D3B9B
:1008E0003A3836353332302F2D2C2A292826252325
:1008F00022FFAA7F55400001010101010101010110
:1009000002020202020202020203030303030303C0
:10091000030404040404040405050505050606068D
:100920000606070707070708080808090909090A4A
:100930000A0A0B0B0B0C0C0C0D0D0D0E0E0E0F0FEF
:100940000F1010111111121213131414151516167D
:100950001717181819191A1A1B1B1C1D1D1E1E1FEC
:100960002020212222232424252626272829292A3B
:100970002B2C2D2D2E2F3031323233343536373863
:10098000393A3B3C3D3E3F4041424344454647485F
:10099000494A4C4D4E4F50515354555658595A5B35
:1009A0005D5E5F616264656668696B6C6D6F7072D5
:1009B000737577787A7B7D7E8082838587888A8C41
:1009C0008E8F91939596989A9C9EA0A2A3A5A7A975
:1009D000ABADAFB1B3B5B7BABCBEC0C2C4C6C9CB6C
:1009E000CDCFD1D4D6D8DBDDDFE2E4E7E9EBEEF022
:1009F000F3F5F8FAFDFF00AE00AF00DA02818FD9FF
:100A0000F1DB40A4A62EAF00A0C000A1C800AED567
:100A100080A81FD300408D14200004033000000084
:100A20000E036B006F00700065007300680000002B
:100A30000A036500730063006100000004030904F9
:100A400009023B00020100A0FA09040000010301B1
:100A5000010009211101000122400007058103085E
:100A6000000A09040100010300000009211101002E
:100A7000012232000705820320000A120110010042
:100A8000000008CAE5510301000102030105010944
:100A900080A101850319012AB700150126B7009529
:100AA0000175108100C0050C0901A101850419011F
:100AB0002AA002150126A002950175108100C0052B
:100AC000010906A101050719E029E715002501958F
:100AD0000875018102950175088101050719002932
:100AE000FF150026FF00950675088100050819010D
:100AF0002905950575019102950175039101C000C5
:100B000011241FBECFEFDAE0DEBFCDBF04B603FE77
:100B100029C08091480690914906A0914A06B0915B
:100B20004B068730904BA740B04BE1F4109248063B
:100B30001092490610924A0610924B0614BE84B7D2
:100B4000877F84BF0FB6F894A89580916000886174
:100B500080936000109260000FBEE0913706F09124
:100B60003806099412E0A0E0B1E0E4EFF2E602C03A
:100B700005900D92A836B107D9F726E0A8E6B2E0B5
:100B800001C01D92A834B207E1F70E9499270C9486
:100B900078310C9400008091610390916203A091E0
:100BA0006303B091640384309105A105B105D9F0C8
:100BB00060F40097A105B10599F082309105A10577
:100BC000B105D9F467E471E010C088309105A10542
:100BD000B10581F08E309105A105B10559F00DC028
:100BE0006BE271E002C06AE371E08AED93E00E947B
:100BF000C52D1CC064E571E0F8CFBF93AF939F9300
:100C00008F9382E691E09F938F931F9288E18F9359
:100C10008AED93E09F938F930E94CC2D8DB79EB762
:100C20000A960FB6F8949EBF0FBE8DBF8AED93E073
:100C30000895CF938C33910528F4FC01EC57FE4FB7
:100C4000C08101C0C0E21F92CF939F938F93FB019D
:100C500080811F928F9381811F928F9383E791E010
:100C60009F938F931F9288E18F938FE792E09F93DA
:100C70008F930E94CC2D8DB79EB70E960FB6F89429
:100C80009EBF0FBE8DBF809168029091690244970C
:100C900079F08091680290916902FC01E659FD4F5C
:100CA000C08301969093690280936802CF91089562
:100CB0001092690210926802EAE6F2E080E292E0A5
:100CC000EE37F90731F38193FACF8FE792E0089579
:100CD0008AE692E00895CF93C82F88E70E946518AE
:100CE00081110AC080E00E949818811105C08C2FE4
:100CF0000E949818C1E08111C0E00E948C188C2FCE
:100D0000CF910895CF93C62F0E946B06882321F0C0
:100D10008C2FCF910C946B0680E0CF910895CF93E8
:100D2000C62F0E946B06882349F080E00E946B0664
:100D3000882321F08C2FCF910C946B0680E0CF910B
:100D400008958EEA0C946B068FEA0C946B060F9351
:100D50001F93CF93DF938C010C5A1F4FD801ED9155
:100D6000FC91119760832D913C9111972F5F3F4F1C
:100D70002D933C93281B390B24353105B9F4EC0134
:100D8000BC016B5E7F4F4FE350E00E94AC2DCE0163
:100D9000CF96F8019183808345E150E060E270E0F6
:100DA000DF91CF911F910F910C94BE2DDF91CF91C8
:100DB0001F910F9108951F93CF93DF93FC01EA5A7F
:100DC000FF4F21E020836A3099F4EC013297808153
:100DD00091818C1B9D0B65E170E00E941C2D182FEA
:100DE000153158F460E2CE010E94A7061F5FF8CFCC
:100DF000DF91CF911F910C94A706DF91CF911F91A6
:100E00000895EF92FF920F931F93CF93DF937C018E
:100E1000EB01FB0101900020E9F78F01015011095E
:100E2000C017D10728F46991C7010E94DB06F8CFEB
:100E3000DF91CF911F910F91FF90EF900895CF9286
:100E4000DF92EF92FF920F931F93CF93DF93CDB773
:100E5000DEB77C010DB71EB7DB010D900020E9F76E
:100E6000CD01861B970B01962DB73EB7281B390B7A
:100E70000FB6F8943EBF0FBE2DBF2F5F3F4F6901E5
:100E80007F936F9320EC31E03F932F939F938F9349
:100E9000DF92CF920E94CC2DB601C7010E940107BC
:100EA0008DB79EB708960FB6F8949EBF0FBE8DBF44
:100EB0000FB6F8941EBF0FBE0DBFDF91CF911F91EB
:100EC0000F91FF90EF90DF90CF900895CF93DF9335
:100ED000EC0144E550E060E270E00E94BE2DFE01AE
:100EE000EC5AFF4FD183C083CA5ADF4F81E0888319
:100EF000DF91CF9108959F92AF92BF92CF92DF92F0
:100F0000EF92FF920F931F93CF93DF93EC010E9418
:100F1000962590939802809397020E94A40663E01E
:100F200082E20E948F06882309F43CC06DE781E2CB
:100F30000E948F068823B1F188E70E94651881110D
:100F400031C080E40E94981881112CC06E0184E0A9
:100F5000982E00E010E0F601E00FF11FA08086E07F
:100F6000A89E50011124E12CF12CF501EE0DFF1D7E
:100F7000E45EFE4F84910E9498188FEFE81AF80AF9
:100F800086E0E816F10489F70F5F1F4F0531110560
:100F900011F79A9485E1C80ED11C9110DACFCA5A84
:100FA000DF4F1882DF91CF911F910F91FF90EF904B
:100FB000DF90CF90BF90AF909F900C948C1883E8F7
:100FC00093E00C947B07CF93DF93C82F0E945F18A8
:100FD0008EEA0E946B06811102C080E09BC060E82F
:100FE00085ED0E9482068823C1F36FE188EA0E94A2
:100FF0008206882391F360E083ED0E9482068823B5
:1010000061F380E40E946B06882339F364E18DE884
:101010000E948206882309F360E080E20E94820633
:101020008823D9F2CC2339F080EA0E946B0688230A
:10103000A1F280EC06C081EA0E946B06882369F267
:1010400088EC0E946B06882341F262E08AED0E94E0
:101050008206882311F26FE881E80E9482068823C5
:1010600009F4BBCF61EF89ED0E948206882309F461
:10107000B4CF60E48BED0E948206882309F4ADCFE3
:1010800084EA0E946B06882309F4A7CF86EA0E94AF
:101090006B06882309F4A1CF8EE20E946B06882399
:1010A00009F49BCF8FEA0E946B06882309F495CF41
:1010B00060E081E80E948206882309F48ECF83E8ED
:1010C00093E00E94660763E082E20E948F06882315
:1010D000E1F06FE781E20E948F068823B1F088E794
:1010E0000E946518811111C080E40E949818811136
:1010F0000CC0D4E0C0E080E00E949818CF5FC038F8
:10110000D1F7D150B9F71092D9030E948C180E94E0
:10111000DF0781E0DF91CF9108950E94020980915D
:10112000D903811104C080910401882321F00E9419
:10113000DF071092040180919702909198020E941B
:10114000AE2581369A4E10F00C94A106089581E0E8
:101150008093040108950F931F93CF93DF93EC01C5
:101160008B010E94A708882329F0B801CE010E94B4
:10117000260902C080E090E08170DF91CF911F913D
:101180000F91089580910004869590E09093F30369
:101190008093F20380E00C94E3070C948D08CF93C6
:1011A000DF93EC010E94CB05BC01CE010E941F071A
:1011B0000E946506BC01CE010E941F070E946806BE
:1011C000BC01CE01DF91CF910C941F070F931F93A9
:1011D000CF93DF93EC018B0144E550E00E949F2DFB
:1011E000892B59F084E5F801DE0101900D928A9572
:1011F000E1F7CA5ADF4F81E08883DF91CF911F91D9
:101200000F910895CF93DF93CDB7DEB7C755D109BE
:101210000FB6F894DEBF0FBECDBFCE0101960E947F
:101220006607CE0101960E94CF08BE016F5F7F4F17
:1012300083E893E00E94E608C95ADF4F0FB6F8949E
:10124000DEBF0FBECDBFDF91CF9108950F931F93E7
:10125000CF93DF938C01EB018A81882319F0C801B9
:101260000E941906033C1C4589F48A81882379F081
:101270000E94CD0D0E94901280910004869590E00E
:101280009093F3038093F20380E001C081E0DF914B
:10129000CF911F910F910895089581E008950895C9
:1012A0000C944F091F93CF93DF9300D000D01F926F
:1012B000CDB7DEB749835A836B8330910A038981A6
:1012C0009A81311114C0662359F0222349F00E94FB
:1012D000F422182F682F89819A810E949D2203C0D1
:1012E0000E94C822182F69817A81812F04C00E9430
:1012F000F42269817A810F900F900F900F900F90D8
:10130000DF91CF911F910C94050AFC01262F40819B
:1013100051816281738184810C945209CF93DF9350
:10132000EC0160E00E948509BE01DF91CF910C9431
:1013300050090E941924811102C00E94B9240C9402
:10134000EF0B0C94ED0B0C944C0981E008950C9478
:10135000A509CF93C82F0E94A3098C2F0E94A7092B
:10136000CF91089508950E94261E0E94B2092FEF82
:1013700084E39CE0215080409040E1F700C00000F1
:101380000C94E3250F931F93CF93DF93EC0161E05F
:101390000E9485098C01BE010E94AB08882379F167
:1013A000BE01C8010E94B916882349F1BE01C801D7
:1013B0000E94FA16882319F1BE01C8010E9425185F
:1013C0008823E9F0BE01C8010E949A138823B9F06E
:1013D0008A81882369F001158CE5180731F00E3DEC
:1013E0001C4531F40E94B9240AC00E94B30907C009
:1013F000CE01DF91CF911F910F910C944D0980E0A8
:10140000DF91CF911F910F910895E72FF0E096E0C3
:10141000899FE00DF11D112483E0EE0FFF1F8A95D7
:10142000E1F7E60FF11DEE0FFF1FE45AF94F85912A
:1014300094910895CF93DF930E94050A0E940B0BAD
:10144000EC0181159245F0F5C11581E5D80708F04A
:10145000A9C0C83ED10528F5C03ED10508F0D7C0C7
:10146000C83AD10578F4C53AD10508F074C0C13046
:10147000D10509F4CCC008F4C8C0C430D10508F0C7
:10148000C6C0C3C0CF3BD10508F0BFC0C85AD0E02A
:10149000CC0FDD1FCC53DE4F0990D881C02DD46412
:1014A000B6C0C11590E5D90708F060C0C11520E4A9
:1014B000D20708F058C0CE019A9581159F4108F4D3
:1014C000A6C0A3C0C11586E5D80718F5C11595E5D6
:1014D000D90708F080C0C11524E5D20708F076C00E
:1014E0009E01237033278C2F86958695C115D34591
:1014F00008F05DC0C1E0D0E002C0CC0FDD1F2A952E
:10150000E2F720E2829FC0011124C82BD92BDC68AE
:101510007EC0C1152AE5D20778F4C11589E5D80740
:1015200008F063C0C11598E5D90708F46EC0DC2F38
:10153000CC27C06FD06A6BC0CE0190568115904207
:1015400008F063C08D2F8F710E949F0BDD27D06242
:101550008F71D82B5CC0C55AD0E0CE50DE4FC88109
:10156000D0E0D06454C0DF70D06A51C0CE0174E0C6
:10157000969587957A95E1F783709C2F937021E07B
:1015800030E002C0220F331F9A95E2F73C68382BF7
:10159000CF70C695C69580E2C89FE0011124C22B8A
:1015A000D32B35C0DC2FCC27C16FD06A30C0C1E04F
:1015B000D0E002C0CC0FDD1F2A95E2F720E2829F27
:1015C000C0011124C82BD92BDA6821C0DC2FCC270D
:1015D000C46FD06A1CC08C2F0E949F0B8F71C82FC4
:1015E000D0E0DC2FCC27D06212C08C2F8F700E94ED
:1015F0009F0B94E0D695C7959A95E1F7CF70D0E010
:10160000DC2FCC27D069C82B02C0C0E0D0E0CE01CF
:10161000DF91CF9108958238910569F1B0F481335B
:10162000910509F46DC048F48932910509F463C04D
:101630008A32910509F469C008958533910509F44A
:1016400055C089339105B9F00895833E910569F13C
:1016500038F4803E9105B1F0823E910509F108957C
:10166000863E9105A9F1873E9105B9F1843E910529
:1016700009F064C023C02091390620FD4FC021FD30
:101680004DC008958091390680FD44C080913A068E
:1016900080FF44C08091390684FD42C083EE4DC076
:1016A0008091390682FF38C0F5CF8091390682FDDE
:1016B00033C080913A0680FD31C0ECCF80913A066C
:1016C00081FF32C08091390684FD2AC087EE35C083
:1016D0008091390683FF26C0F5CF8091390683FDBE
:1016E00021C080913A0681FD1FC0ECCF8091390660
:1016F00085FD1CC01DC08091390685FD19C016C02E
:101700008091390686FD16C017C08091390686FD86
:1017100013C010C089E311C082EE0FC080EE0DC06F
:1017200080E00BC086EE09C084EE07C089E205C0E8
:1017300085E303C08AE201C081E390E008959091BF
:10174000390692FF0DC0282F2871283019F4877FA1
:10175000846006C0282F2471243011F48B7F8860A8
:1017600093FF0DC0282F2871283119F4877E8461DA
:1017700006C0282F2471243111F48B7E88612091BA
:101780003A0620FF0DC0382F3871383019F4877FA2
:10179000816006C0382F3171313011F48E7F88603E
:1017A00021FF0DC0282F2871283119F4877E81610F
:1017B00006C0282F2171213111F48E7E886194FD9D
:1017C000877E0895E82FF0E0E650FC4F8081089571
:1017D000089580EA8A95F1F708950C94CD080C9449
:1017E000C208CF93DF93ADEFB1E043E052E061E098
:1017F00070E08D91E82FE295EF70F0E021A18F70FD
:10180000EB0102C0CC0FDD1F8A95E2F7CE019C2FC1
:101810009095922391A392A1892B82A34A175B07EB
:1018200041F7A5EFB1E04DEF51E061E070E08D913F
:10183000E82FE295EF70F0E021A18F70EB0102C07C
:10184000CC0FDD1F8A95E2F7CE019C2F9095922355
:1018500091A392A1892B82A34A175B0741F7E4EF7A
:10186000F3E0AAEFB3E08AEF93E011921D928E1796
:101870009F07D9F786E00E94C70CDF91CF910C94A7
:1018800099096F927F928F929F92AF92BF92CF925F
:10189000DF92EF92FF920F931F93CF93DF938DEF21
:1018A000882E81E0982E04EF13E09AEFA92E93E0A2
:1018B000B92E712CCC24C394D12CF40181914F0109
:1018C000C82FC295CF70D0E099A18F70760101C06A
:1018D000EE0C8A95EAF7892F8E2989A38AA16E2CAE
:1018E000609486218AA30E94E90BE5EFF1E040E0D5
:1018F00050E020E03191A32FA295AF70B0E0909618
:101900008C9190E03F7002C0959587953A95E2F7EB
:1019100080FD07C08C2D042E01C0880F0A94EAF7C1
:1019200001C080E0282B4F5F5F4F4830510511F711
:1019300089A1682269A28AA1E82AEAA2F801808125
:10194000281719F0208381E001C080E0782A0F5F1A
:101950001F4FA016B10609F0B0CF272D46E06AEF61
:1019600073E084EF93E00E94C80C0E94A109872DC8
:10197000DF91CF911F910F91FF90EF90DF90CF906B
:10198000BF90AF909F908F907F906F900895089533
:10199000FF920F931F93CF93DF938C01F62ED72FD7
:1019A000C42F222349F081E080939B020E94962558
:1019B00090939A028093990280919B028823C1F0B0
:1019C0008091990290919A020E94AE25069780F02C
:1019D000EF2DFD2FD8014C2F50E0CD01801B910B36
:1019E000841795071CF48D918193F7CF10929B0279
:1019F000DF91CF911F910F91FF900895EF92FF9289
:101A00000F931F93CF93DF93F62E472FE82FF0E02D
:101A1000711106C0EA50F74F6491762F862F72C07D
:101A2000272F30E0EA50F74FE4910E2F10E056E0F8
:101A3000659FC0011124CFEFD0E0BE010E94082DA8
:101A40005BEA5603C001579F900D11248F0D911D25
:101A50008F0D911D982F990F890F7E01E21AF30ABD
:101A6000E09ED001E19EB00DF09EB00D1124489F84
:101A7000A0011124452F55277E01E41AF50AE09EA6
:101A8000A001E19E500DF09E500D11247E01E81A38
:101A9000F108E29EC001E39E900DF29E900D11248C
:101AA000892F9927C81BD90BC09FC001C19F900DDA
:101AB000D09F900D11246230710591F048F46115AA
:101AC0007105E1F061307105A9F48B2F752F19C0F4
:101AD0006430710561F038F06630710579F00AC044
:101AE000892F7B2F0EC08E2F7B2FE52F0AC08E2FC4
:101AF000792F02C0852F7E2FEB2F03C08B2F7E2FD7
:101B0000E92F6E2FDF91CF911F910F91FF90EF90F2
:101B100008950895CF93DF93762FE901682F842FDE
:101B20000E94FE0C798368838A83DF91CF910895A8
:101B3000413F08F040EF0C948A0D80910004282F5B
:101B4000269530E02115310519F48170826005C0B9
:101B50002B32310524F081708465809300048091DC
:101B60000304813F18F080EF80930304089588E018
:101B700090E00C949E30CF92DF92EF92FF926B0137
:101B80007C010E949D0DB701A60188E090E0FF90C6
:101B9000EF90DF90CF900C94BC30E0E0F4E083E075
:101BA000808311828FEF828380EF83831482608130
:101BB0007181828193810C94BB0D8091000480FF20
:101BC00002C08695089580E00895809104048330D2
:101BD00018F48F5F809304046091000470910104F5
:101BE00080910204909103040C94BB0D8091040435
:101BF000882319F08150809304046091000470914F
:101C0000010480910204909103040C94BB0D70E0D8
:101C10000C944714609108018091000480FF0AC071
:101C20008091070123E0829FC00111248B5F9B4FAD
:101C30000C94070E8091090190910A01891780F791
:101C4000E82FF0E09F01220F331FE20FF31FEB5F3D
:101C5000FB4F1182108212828F5FF0CF90910004AF
:101C600090FF16C09091090120910A01921770F41B
:101C7000E92FF0E0DF01AA0FBB1FEA0FFB1FEB5FAC
:101C8000FB4F8183608342839F5FF0CF0C940A0EE9
:101C90000895CF93DF9300D01F92CDB7DEB7909118
:101CA000000490FF0AC09E012F5F3F4F0E94980DD5
:101CB0004B8169818A810E942E0E0F900F900F90A8
:101CC000DF91CF910895CF93DF93EC01EC81F0E0A9
:101CD000EF50F84F4491E0E0F4E0628181810E948E
:101CE000490E8C818F5F8C83DF91CF910895CF93C4
:101CF000DF93EC01E0E0F4E0438162818C810E949B
:101D0000490E8C818F5F8C83DF91CF9108950F9363
:101D10001F93CF93DF9300D01F92CDB7DEB78C0116
:101D200080919C0281110AC09E012F5F3F4F40EFBE
:101D30006FEF0E94980D8A8180939C02F801848144
:101D4000813051F028F0823061F440919C020AC049
:101D500080919C0240E007C060919C0240E080E0DE
:101D600003C040E080E060E00E942E0EF801848114
:101D700090E0019663E070E00E941C2D84830F9038
:101D80000F900F90DF91CF911F910F910895AF9217
:101D9000BF92CF92DF92EF92FF920F931F93CF9358
:101DA000DF9300D01F92CDB7DEB7182FF62E042F89
:101DB000E22E9091000490FF6DC0E92FE695AE2FC2
:101DC000B0E0AD5FBD4F8C918093CE029E7F92308C
:101DD00061F49E012F5F3F4F812F0E94980D4B8130
:101DE00069818A810E942E0E43C0823019F40091CD
:101DF00003043EC0863019F41091010439C08930C3
:101E0000D9F38931A9F5E9518E2F8170D82EE69545
:101E1000F0E0EF50F74FA590B490C12CBB24609137
:101E20000B01C61618F52C2D30E0A29EC001A39E12
:101E3000900DB29E900D112470E00E94082D812F0C
:101E4000D11002C0860F01C0861B90910901290F95
:101E5000311DA901440F551F240F351F2B5F3B4F28
:101E6000402F6F2D0E94980DC394D9CF0E940A0E67
:101E700010930104F092020400930304EE2051F049
:101E80006091000470910104809102049091030418
:101E90000E94BB0D0F900F900F90DF91CF911F917B
:101EA0000F91FF90EF90DF90CF90BF90AF9008958B
:101EB000E0E0F4E09181282F438162818AE0890F7C
:101EC0000C94C70E81E00C94580FE0E0F4E091818F
:101ED000282F4381628186EF890F0C94C70E81E021
:101EE0000C94650FE0E0F4E0628121E1620F08F4F8
:101EF0006FEF282F438181810C94C70E81E00C94F1
:101F0000720FE0E0F4E0628121E1621B08F460E01E
:101F1000282F438181810C94C70E81E00C94810F9E
:101F2000E0E0F4E0438121E1420F08F44FEF282F75
:101F3000628181810C94C70E81E00C94900FE0E0E7
:101F4000F4E0438121E1421B08F440E0282F628144
:101F500081810C94C70E81E00C949F0F20E00C94BB
:101F6000C70EFF920F931F93CF93DF93EC01F12CD9
:101F70000FEF10E060910B01F616F0F4809109016B
:101F80002F2D30E0280F311DC901880F991F280F10
:101F9000391F2B5F3B4F70E0C8010E941C2D962F0C
:101FA0008C814091030460910204F99E800D1124FC
:101FB0000E94980DF394DECF0E940A0E9A818C81C4
:101FC00090FF02C08F5F01C081508C83DF91CF9161
:101FD0001F910F91FF900895BF92CF92DF92EF92E1
:101FE000FF920F931F93CF93DF93FC01828180FFB9
:101FF00002C00FEF01C001E010E080910B01181743
:1020000008F040C080910901C12ED12CE601C80F13
:10201000D11DCE01880F991FC80FD91FCB5FDB4F91
:10202000198218821A8234E0E32EF12CB12C8091AF
:102030009E028B0D893014F0877005C087FF03C0A6
:1020400090910B01890F082E000C990BC816D90628
:1020500091F4809103048E9DA0018F9D500D112459
:1020600055954795559547959E016091020480913D
:1020700001040E94980DB00EF1E0EF1AF108B9F6D4
:102080001F5FBBCF0E940A0E80919E02013031F487
:10209000811102C080910B01815007C090E0019630
:1020A00060910B0170E00E941C2D80939E02DF91D5
:1020B000CF911F910F91FF90EF90DF90CF90BF9045
:1020C0000895CF938091090190910A01891770F4C6
:1020D000E82FF0E09F01220F331FE20FF31FEB5FA9
:1020E000FB4F1182108212828F5FF0CFC0E06091AF
:1020F0000B01C617C0F5EC2FF0E070E0CF010E9495
:102100001C2D20910901820F20919D02022E000CAE
:10211000330B90E0E217F307CCF020910601022E7A
:10212000000C330B2E173F078CF09C01220F331F3E
:10213000820F931F9C012B5F3B4F409103046091E2
:102140000204809101040E94980D0BC0FC01EE0F67
:10215000FF1F8E0F9F1FFC01EB5FFB4F1182108250
:102160001282CF5FC4CF0E940A0E20910501809198
:102170009D02820F80939D0290910601920F909391
:10218000060119165CF4082E000C990B40910B0106
:1021900050E041505109841795071CF02195209378
:1021A0000501CF9108950F931F93CF93DF938C0177
:1021B000FC018481958101968170992795838483A0
:1021C000C0E0D5E580910B01C81700F580910901A9
:1021D0002C2F30E0280F311DC901880F991F280FBF
:1021E000391F2B5F3B4F4C2F4695F8018481958119
:1021F000840F911D817040910304609102048D9FB2
:10220000802D11240E94980DCF5FDCCFDF91CF91FC
:102210001F910F910C940A0E0F931F93CF93DF938E
:10222000EC0100E010E080910B01282F30E0021754
:10223000130724F5909109019801290F311DA90177
:10224000440F551F240F351F2B5F3B4F869590E0A1
:102250004C81081719071CF4442331F002C04111C6
:1022600003C04091030401C040E0609102048091EA
:1022700001040E94980D0F5F1F4FD5CF0E940A0ED8
:102280008C8190E00196817099278C83DF91CF91AA
:102290001F910F9108958F929F92AF92BF92CF920C
:1022A000DF92EF92FF920F931F93CF93DF93FC0186
:1022B000B280948081E0848300E015E05BE4A52E89
:1022C00088248394EE24EA94F12C7BE4C72ED12C4D
:1022D00080910B01081708F08FC0C02FD0E01C9F21
:1022E000F0011D9FF00D1124E156FD4F911003C028
:1022F0001382128267C02381222389F12150238314
:102300003481332319F09A2D921B01C0922F8091B2
:1023100003041C9FF0011D9FF00D1124E156FD4F99
:10232000899FC0011124B6010E94082D62832111EA
:1023300004C0332311F01482A38222E02B1508F489
:1023400041C01C9FF0011D9FF00D1124E156FD4F6F
:1023500080910104808380910204818333C00E94B4
:10236000822D8230914074F582E08B1530F40E940A
:10237000822DB7010E941C2D02C0809101041C9F78
:10238000F0011D9FF00D1124E156FD4F808322E0E6
:102390002B1558F40E94822D209102042695622F5D
:1023A00070E00E941C2D820F02C0809102041C9FCD
:1023B000F0011D9FF00D1124E156FD4F8183128223
:1023C000A3828482809109019E01280F311DC901D9
:1023D000880F991F280F391F2B5F3B4F1C9FF0015F
:1023E0001D9FF00D1124E156FD4F428161818081D6
:1023F0000E94980D0F5F6CCFDF91CF911F910F91CD
:10240000FF90EF90DF90CF90BF90AF909F908F9014
:102410000C940A0EE0E0F4E080818E7F808360817E
:102420007181828193810E94BB0D1092CF022FEFA8
:1024300080E792E0215080409040E1F700C000002A
:102440000C940A0E60910004669570E04BE050E039
:102450008CE091E00E94922D892B19F481E0809309
:10246000CF020E9496259093C8028093C7020895D8
:102470009091000490FF35C09170811102C092606C
:1024800006C08B3210F0946502C0880F982B909391
:102490000004662351F06091000470910104809162
:1024A0000204909103040E94BB0D609100046695A4
:1024B00070E04BE050E08CE091E00E94922D892B7F
:1024C00019F01092CF0202C00E94221281E0809384
:1024D000CA024091030460910204809101040C94AB
:1024E000AE0F0895682F90910004969581E0890FB2
:1024F0008B3208F081E00C94381281E00C94721257
:10250000682F9091000496958FEF890F09F48AE265
:102510000C94381281E00C94801261E00C94381213
:10252000E0E0F4E080818160808386950C948D12D8
:102530008091000480FD0C940A120C94901260E0CB
:102540000C9438128091CD0281112EC00E94192462
:10255000811104C00E94B9240E94CD0D0E94B70DC4
:102560006093000470930104809302049093030429
:102570006E7F61F40E94CD0D0E94B70D6093000440
:102580007093010480930204909303040E949D0DB4
:102590001092CF028091000480FF03C086950E94B4
:1025A0009F1281E08093CD0208950F931F93CF93E4
:1025B000DF938091CF02882309F49CC08091CE02E2
:1025C000E0910004E695E81BE093C902823049F4EB
:1025D000F0E0E351F84FE491CE2FD0E003E61EE0A7
:1025E00059C0863049F4F0E0E651F84FE491CE2F1F
:1025F000D0E007E71EE04EC0893051F4E695F0E0E8
:10260000E951F84FE491CE2FD0E001EB1FE042C03A
:102610008F3051F4E695F0E0EC51F84FE491CE2F75
:10262000D0E00CEE1FE036C0853149F4F0E0EF5108
:10263000F84FE491CE2FD0E001E610E12BC08831B5
:10264000D9F0833239F4EFEDF7E0C591D49107E882
:102650001EE020C08432A9F08532C1F48E2F63E0E1
:102660000E94FC2CE92FF0E0E452F84FE491CE2FC9
:10267000D0E00BE411E10EC0C8EED3E003ED10E1B1
:1026800009C0C4EFD1E00CE011E104C0C0EDD7E017
:1026900009E81DE08091CA02882389F01092CA02DD
:1026A0000E9496259E0120953095820F931F90934E
:1026B000C8028093C7021092CC021092CB02809184
:1026C000C7029091C8020E94AE258C179D0790F01A
:1026D000E091C702F091C802CE0FDF1FD093C8026D
:1026E000C093C70287EC92E0F801DF91CF911F9170
:1026F0000F910994DF91CF911F910F910895882335
:1027000011F0FA0101C0FB010994CF93DF93C82FA8
:10271000D62F0E94DD0D8C1740F00E94DD0D8D1725
:1027200020F4DF91CF910C947D128C2FDF91CF910B
:102730000C948D120F931F93CF93FB01C281CC2376
:1027400009F463C08C010E9475238272F801E25C77
:10275000FC45E431F10508F059C0EA5AFF4F0C94EA
:10276000302D0E94981206C04AE852E16DE772E1EE
:102770000E947F13C0E04AC04DE752E16AE872E16F
:10278000F7CF4FE65FE062E67FE0F2CF42E65FE040
:102790006FE67FE0EDCF4DE85FE06EE77FE0E8CFEA
:1027A0004EE75FE06DE87FE0E3CF4BEA5FE06CE986
:1027B0007FE0DECF4CE95FE06BEA7FE0D9CF46EF08
:1027C0005DE065EE7DE0D4CF45EE5DE066EF7DE057
:1027D000CFCF81E017C065E082E010C068E086E0FE
:1027E0000DC06EE089E00AC064E18FE007C067E1D8
:1027F00085E104C088E106C062E289E10E94851398
:10280000B9CF83E20E948D12B5CFC1E08C2FCF915A
:102810001F910F9108955AB1E42FEF7021E030E03D
:1028200001C0220FEA95EAF7352F322B3AB94295CB
:102830004F70E42FF0E032A1422F4095342342A1A3
:10284000242B4FB7F894FC01CB01880F991F680F18
:10285000791F6E0F7F1FE617F70789F0819198E0C7
:102860002BB9000000C087FF3BB9880F000000C0F3
:1028700000C000C03BB900C09A9591F7ECCF4FBFA4
:1028800087EC90E00197F1F700C00000089543E95C
:102890000C940B14EF92FF920F931F93CF93DF933F
:1028A000EC017B0164E670E088E70E940D198C0161
:1028B000EC0EFD1ECE15DF0561F017FD0AC0FE010E
:1028C000849164E670E00E9464198C012196892B42
:1028D00089F30E94E819C801DF91CF911F910F91F0
:1028E000FF90EF9008950895EDE1F4E080E092E02C
:1028F000DF019C011D9221503040E1F7F093220648
:10290000E09321068FEF9FEF9093F6028093F502FC
:1029100008950E9473148093F10280FD02C080E844
:1029200001C080E28093F0020E9407196DE070E020
:102930008DE09AE00E944A14892B11F080E00895FE
:102940008091F10263E070E081FD03C08AE09AE0CB
:1029500002C087E09AE00E944A14892B79F76DE063
:1029600070E08AEF99E00E944A14892B39F70E949F
:10297000A225DC01CB01805A9541AF4FBF4F809318
:102980001D0690931E06A0931F06B09320060E947A
:10299000741481E08093F4028093F3021092F202A7
:1029A00008952091F00236E0839FC0011124629FB8
:1029B000800D911D1124811522E0920714F080E012
:1029C00090E0835E9B4F90932206809321060895AA
:1029D0000E94A225DC01CB01805A9541AF4FBF4F29
:1029E00080931D0690931E06A0931F06B0932006A9
:1029F0008091F30281110BC062E070E088EF99E0F2
:102A00000E944A14892B19F481E08093F30280918B
:102A1000F30208956F927F928F929F92AF92BF922E
:102A2000CF92DF92EF92FF920F931F93CF93DF939A
:102A30002091F5023091F6022115310509F4D4C038
:102A40008091F2028111D0C061E070E0082F10E0A7
:102A50003B01082E02C0660C771C0A94E2F7A30122
:102A600042235323452B11F48F5FF0CF9091F10255
:102A7000980165E0220F331F6A95E1F790FD12C0BF
:102A80008295880F807680931901220F232F221FB1
:102A9000330B319520931C01815E80931A011092B3
:102AA0001D0112C045E0369527954A95E1F7220FA2
:102AB000220F220F2093190110921C01295F2093ED
:102AC0001A0183E080931D0124E630E047E050E0E6
:102AD00067E171E088E70E949419892B09F084C0AE
:102AE0008091F10280FD23C0A80195E0440F551F9D
:102AF0009A95E1F7435E5B4F04E610E020E230E098
:102B000060E488E70E94BB19892B09F06DC00E9420
:102B1000E814E301C095D0958091F5029091F602FA
:102B2000C823D923D093F602C093F5025DC080E29A
:102B3000E0EDF2E0DF011D928A95E9F785E0000FF4
:102B4000111F8A95E1F7A2E3B2E04EE252E0992428
:102B500093942D91EA018991AE01B801680F711D1E
:102B6000635E7B4F30E020533D4FF90197E07F01DA
:102B7000E21AF30AA92C01C0AA0CEA94EAF77B0135
:102B8000B12CE70189917E018A21892E8B18D82DDD
:102B9000D770CD2E0D2E000CDD08C82F01C0CC0F34
:102BA000DA95EAF7D194C194D108D7E0CD22DD249B
:102BB00001C08695CA94EAF78C2BD0808D2980833A
:102BC000B39488E0B812DDCF915031969F3F79F6EB
:102BD000C2E0A633BC0709F0BCCF04E610E020E257
:102BE00030E040ED52E08CCFDF91CF911F910F91FB
:102BF000FF90EF90DF90CF90BF90AF909F908F901D
:102C00007F906F9008958091F302882369F062E0CD
:102C100070E086EF99E00E944A14892B19F08091A8
:102C2000F30208951092F3029091F30281E0892754
:102C3000089508950F931F938091F402882311F152
:102C400060E080E00E94D1140E9419160E940A15CB
:102C50008091F3028823B1F00E94A22500911D0605
:102C600010911E0620911F0630912006DC01CB0139
:102C7000801B910BA20BB30BB7FD04C01F910F91EA
:102C80000C9403161F910F9108950F931F93CF93E8
:102C9000DF93C62FD42F122FFC0182818823C9F025
:102CA0006093F9020E9496259093F8028093F702B0
:102CB00080E28C0F883008F057C0C77081E001C0F7
:102CC000880FCA95EAF7DF91CF911F910F910C946D
:102CD000BD1B8091F902681330C08091F70290917A
:102CE000F8020E94AE25883C910538F500E20D0FF0
:102CF000CD17B9F080E28C0F883040F4C77081E0C6
:102D000001C0880FCA95EAF70E94C41B083028F555
:102D100081E09D2F977001C0880F9A95EAF70E9475
:102D2000BD1B812F0E94AA1B0830F0F4D77081E0F0
:102D300001C0880FDA95EAF70AC080E28C0F88306C
:102D400098F4C77081E001C0880FCA95EAF7DF9157
:102D5000CF911F910F910C94C41B812FDF91CF91C4
:102D60001F910F910C94AA1BDF91CF911F910F918E
:102D700008959C01CB01233F4CE53407F9F078F42A
:102D8000283DFCE53F07B9F0293D4CE5340711F13A
:102D9000273D3C4531F526E241EE61EE1EC0253F60
:102DA000FCE53F0799F070F0263F3C45D1F427E25F
:102DB00045EE66EE12C027E245EE0EC026E241EE79
:102DC00060EE0BC027E245EE64EE07C026E241EE5E
:102DD00062EE03C028E241E065EE0E94451680E005
:102DE0000895FC018281882319F01092F902089558
:102DF00081E00895CF93DF93EC01FB01828188236A
:102E000009F41FC1C230FCE5DF0708F41BC1C6315D
:102E10009CE5D90738F09E012A5F3C4529303105F1
:102E200008F010C10E942C2490933A068093390632
:102E3000C031ECE5DE0709F4C3C008F041C0C8307A
:102E40008CE5D80709F49AC0F0F4C430ECE5DE074D
:102E500009F487C068F4C2308CE5D80709F477C05C
:102E6000C330DC4509F0E3C080913906826076C04A
:102E7000C630ECE5DE0709F46EC008F07BC0809137
:102E8000390688606BC0CC308CE5D80709F485C062
:102E900068F4CA30ECE5DE0709F474C008F079C0C4
:102EA0000E94261E80913906806858C0CE308CE57D
:102EB000D80709F476C008F07FC0809139068BC02E
:102EC000CB3FECE5DE0709F44FC018F5C3318CE5C4
:102ED000D80709F47DC078F4C131ECE5DE0709F4C8
:102EE00073C0C231DC4509F0A2C00E94261E809149
:102EF00039068F7733C0C5318CE5D80709F472C025
:102F000008F486C0CA3FDC4509F091C080913A06BA
:102F10003EC0CF3FFCE5DF0709F45FC058F4CD3F6A
:102F20009CE5D90709F444C008F43FC080913A06F3
:102F300082602DC0C130FDE5DF0709F475C008F4DB
:102F40005DC0C230DD4509F072C080E06EC0809186
:102F50003906816003C0809139068061809339060B
:102F600066C08091390611C080913A0682608093D4
:102F70003A065DC0809139068062F0CF80913906B3
:102F80008064ECCF8091390688608460E7CF8160EF
:102F9000EECF809139068E7FE1CF809139068D7F0B
:102FA000DDCF80913906877FD9CF80913A0618C04E
:102FB00080913A068D7FDBCF809139068F7ECECF10
:102FC000809139068F7DCACF809139068F7BC6CF1D
:102FD00080913906877F8B7FC1CF80913A068D7FA4
:102FE0008E7FC5CF8091390682FB222720F991E0A0
:102FF000922790FB82F990FB83F9B0CF80913A063B
:10300000982F909591708E7F892B90FB81F9AFCF8F
:103010000E94261E8091390687FB222720F991E025
:10302000922790FB87F99ACF81E00E94BB24809180
:10303000390690913A060E943D240E94261E80E0A7
:1030400001C081E0DF91CF910895CF93DF93863166
:103050009C4541F5EB010E947523982F8A812091B0
:103060001E0130911F01882379F09A7A81E009F4DA
:1030700080E08093FA02911102C069E201C065E329
:10308000C9010E9402250AC08091FA02811102C082
:1030900069E201C065E3C9010E9404250E94B623CC
:1030A00080E001C081E0DF91CF91089583E390E05B
:1030B0002091BC0027FD02C00197D1F7089510921E
:1030C000B9008CE08093B8000895CF93C82F84EAAC
:1030D0008093BC000E9456188091B900887F883088
:1030E00039F08091B900887F803111F081E012C001
:1030F000C093BB0084E88093BC000E945618809166
:10310000B900887F883129F08091B900887F8034A8
:1031100069F780E0CF91089584E98093BC0083E350
:1031200090E02091BC0024FD02C00197D1F70895E2
:103130008093BB0084E88093BC000E945618909155
:10314000B900987F81E0983209F480E008951F92D9
:103150000F920FB60F9211248F939F93EF93FF93CB
:103160008091B900887F803869F038F48823C9F1EC
:103170008036C9F51092FB0236C0883A09F1883BC7
:10318000F9F031C08091FB02811111C08091BB0028
:103190008093FC028091FC02803120F01092FC02AE
:1031A00080E001C081E091E09093FB021DC0E091BE
:1031B000FC02F0E08091BB00ED5DF94F808308C018
:1031C000E091FC02F0E0ED5DF94F80818093BB005F
:1031D0008091FC0290E001968F7099278093FC0209
:1031E00002C01092BC0081E09091BC008295880FD3
:1031F000880F807C9568892B8093BC00FF91EF91AC
:103200009F918F910F900FBE0F901F901895109265
:10321000B9008CE08093B8000895EF92FF920F936D
:103220001F93CF93DF93182FEB011092BC0084EA19
:103230008093BC000E9496257C018091BC0087FD94
:103240000EC0CF3F8FEFD807C1F30E9496258E198D
:103250009F098C179D0788F38EEF9FEF2EC08091FA
:10326000B900887F883041F08091B900887F803133
:1032700019F08FEF9FEF21C01093BB0084E880937B
:10328000BC000E9496258C018091BC0087FD0CC07B
:10329000CF3F8FEFD807C1F30E949625801B910B7B
:1032A0008C179D0788F3D8CF8091B900887F88312B
:1032B00011F08034F1F680E090E0DF91CF911F9122
:1032C0000F91FF90EF9008950F931F93CF93DF938B
:1032D000EB018093BB0084E88093BC000E9496259C
:1032E0008C018091BC0087FD0EC0CF3F8FEFD807C7
:1032F000C1F30E949625801B910B8C179D0788F3C4
:103300008EEF9FEF0CC02091B900287F81E090E004
:10331000283211F480E090E0919581959109DF9138
:10332000CF911F910F910895CF92DF92EF92FF926C
:103330000F931F93CF93DF936B018A017901B9013A
:103340000E940D19E6010C0D1D1DC017D10761F477
:1033500024E92093BC00DF91CF911F910F91FF9042
:10336000EF90DF90CF90089597FDF2CFB70189914C
:103370000E946419EACFCF92DF92EF92FF920F93EF
:103380001F93CF93DF93C62F6A017901B8010E9482
:103390000D1997FD11C0B8018C2F0E946419E60128
:1033A000EC0CFD1CCE15DF0539F097FD05C0B8010A
:1033B00089910E946419F6CF24E92093BC00DF9123
:1033C000CF911F910F91FF90EF90DF90CF900895D4
:1033D00084E98093BC0008959093020380930103D5
:1033E0000895E0910103F0910203309721F00190DC
:1033F000F081E02D099480E00895E0910103F091BF
:103400000203309721F00280F381E02D09940895A2
:103410002091FF02309100032817390771F0909333
:1034200000038093FF02E0910103F09102033097C3
:1034300021F00680F781E02D099408952091FD0286
:103440003091FE022817390771F09093FE028093A5
:10345000FD02E0910103F0910203309721F0008416
:10346000F185E02D0994089585B7806885BF85B7FB
:10347000806885BF089508950C943B1A0C943C1AFB
:103480000C943B1A0C943B1A0E94341A0E94401A66
:103490000C943E1A81E008950C944A1A0E948D25DE
:1034A0000E94F10B80E00E9489140E9425260E9450
:1034B000A2120C94421A9F92AF92BF92CF92DF92C7
:1034C000EF92FF920F931F93CF93DF93CDB7DEB7A9
:1034D0002A970FB6F894DEBF0FBECDBF0E94410CF5
:1034E000C82E0E944C1A811111C08FEF89838A83E4
:1034F0001B820E9496258160782F9D838C83498151
:103500005A816B818D810E94FC1A40C084E0A82EF4
:1035100083E0B82E00E010E0902E802F0E94E20B96
:10352000E82EF501D1905F01D82631F40F5F1F4FCF
:103530000630110589F7D9CF8091760381FD0E946D
:10354000E80B80E0FF24F3949D2D9F21D1F08E8322
:103550009F82EF2081E009F480E088870E94962511
:103560008160782F9A8789874E815F8168858A85F7
:103570000E94FC1AF801EC5FFC4F8081F826F08273
:1035800005C08F5FFF0C8830F9F6D0CF0E94D512AE
:103590000E941A16C1100E94E8140E94F11990911D
:1035A00003038917B9F00E94F119809303032A9647
:1035B0000FB6F894DEBF0FBECDBFDF91CF911F9144
:1035C0000F91FF90EF90DF90CF90BF90AF909F90C2
:1035D0000C94A9092A960FB6F894DEBF0FBECDBF92
:1035E000DF91CF911F910F91FF90EF90DF90CF90DF
:1035F000BF90AF909F900895CF93DF93CDB7DEB784
:103600002B970FB6F894DEBF0FBECDBF4F83588700
:1036100069877A878B87DE01119686E0FD0111921A
:103620008A95E9F785E0FE01379601900D928A951B
:10363000E1F749815A816B817C818D819E810E9455
:10364000DF202B960FB6F894DEBF0FBECDBFDF9103
:10365000CF910895FC01808191810E9436230895C5
:10366000CF93882309F448C0C82F8CEF8C0F813A80
:10367000D0F46C2F80911E0190911F010E94CC24E8
:10368000882349F06C2F80911E0190911F010E94A8
:1036900004250E94B6236C2F80911E0190911F017A
:1036A0000E9402250CC080E28C0F883058F4C7704D
:1036B00081E001C0880FCA95EAF70E947823CF9174
:1036C0000C94B623EBE5EC0FE33040F4F0E0EC595A
:1036D000FD4F808190E0CF910C94081AC85AC731F1
:1036E00058F4EC2FF0E0EE0FFF1FEA5CFD4F8081F5
:1036F0009181CF910C941E1ACF910895882349F19E
:10370000682F8CEF860F813A38F480911E019091DA
:103710001F010E9404250CC080E2860F883050F4FF
:10372000677081E001C0880F6A95EAF70E947E23E6
:103730000C94B6238BE5860F833020F480E090E074
:103740000C94081A685A673120F480E090E00C94D9
:103750001E1A0895CF93C82F0E94301BC93349F415
:103760002FEF87EE93E0215080409040E1F700C0BA
:1037700000008C2FCF910C947E1B882321F00E9497
:1037800078230C94B6230895882321F00E947E2389
:103790000C94B6230895CF92DF92EF92FF920F938D
:1037A0001F93CF93DF937C01D62FC72FFC01058198
:1037B00002950F70128111110E9495230E946E23B1
:1037C000882379F0112369F080E28D0F883048F06A
:1037D00082E00E9400240E946E2391E0D82ED92618
:1037E00001C0D12CCC2EC2948FE0C8228C2D90E049
:1037F0008C30910508F0ABC1FC01E659FF4F0C94E9
:10380000302D8C2F807FCF70882311F0C295C07F20
:10381000112399F0CC2309F486C180E28D0F883002
:1038200010F0D11104C08C2F0E94782303C08C2F7C
:103830000E9488230E94B62376C18D2F0E947E1B92
:10384000CC2309F484C180E28D0F883010F0D111AF
:1038500004C08C2F0E947E2303C08C2F0E948E23D5
:103860000E94B62374C18C2F807FCF70803211F0FC
:10387000C295C07FDD2319F0D130C9F022C01123D9
:1038800071F0002341F0013031F40E949B238C2B16
:103890000E94A3235CC10E949B238C2B1DC000238C
:1038A00019F0013009F453C10E94AC2325C0112343
:1038B00021F0063008F04BC10EC0053008F047C1BA
:1038C0001BC0112361F0002331F0F701858180FFD7
:1038D0002AC18F7085838C2F0E94BD1B38C10023A5
:1038E00059F0D93309F030C1FFEF07EE13E0F15082
:1038F00000401040E1F726C18C2F0E94C41B27C155
:103900008C2F86958695837019F0813061F01FC1E8
:10391000112321F08D2F9C2F937002C080E090E046
:103920000E94081A1CC1112321F08D2F9C2F937027
:1039300002C080E090E00E941E1A11C18C2F83709B
:1039400009F047C0111107C12D2F22952695277028
:10395000220F220F6D2F6F70862F90E0A0E0B0E055
:10396000022E04C0880F991FAA1FBB1F0A94D2F70A
:10397000D4FF10C04FE050E060E070E004C0440F9E
:10398000551F661F771F2A95D2F740955095609571
:10399000709503C040E050E0BA01C695C695C3706B
:1039A0008A019B01082B192B2A2B3B2BC901B8013B
:1039B000C23049F058F4C13019F00E94B321CBC095
:1039C0000E94A121C8C00E94C521C5C00E949F219C
:1039D000C2C0112319F08C2F817001C086958823F5
:1039E00009F4B9C02D2F229526952770220F220F9A
:1039F0006D2F6F70862F90E0A0E0B0E0022E04C023
:103A0000880F991FAA1FBB1F0A94D2F7D4FF10C0BA
:103A10004FE050E060E070E004C0440F551F661FA7
:103A2000771F2A95D2F7409550956095709503C001
:103A300040E050E0BA01C695C695C3708A019B016B
:103A4000082B192B2A2B3B2BC901B801C23049F096
:103A500058F4C13019F00E9478227DC00E9466227D
:103A60007AC00E948A2277C00E94D92174C0CF7088
:103A7000112339F08C2F0E94FF218D2F0E94BD1B36
:103A80006AC08D2F0E94C41B8C2F0E94202263C00D
:103A9000D23F01F128F4D03F41F0D13FA1F03FC027
:103AA000D33FF9F0D43F39F13AC0112341F005304A
:103AB00008F04DC08C2F8F710E94452248C00630FF
:103AC00008F045C0F7CF112339F08C2F8F710E9479
:103AD000FF213DC01123C9F38C2F8F710E9420223A
:103AE00036C0112329F08C2F8F710E94EA212FC03C
:103AF0000E94E5212CC0112349F0CF718C2F0E9428
:103B0000FF2163E08C2F0E94EB2321C081E00E9403
:103B100000240230E0F082E00E94002418C011234B
:103B200031F0002391F28D2F0E94301B10C0002332
:103B300099F2D93349F41FEF27EE33E011502040BA
:103B40003040E1F700C000008D2F0E947E1B88EFFF
:103B50008C0D843020F40E94F1190E94A909DD2007
:103B6000C9F00E946A2380FD15C0F70112820E94ED
:103B700064230E94FF21C7010E94EB1D0E94642361
:103B8000DF91CF911F910F91FF90EF90DF90CF9039
:103B90000C942022DF91CF911F910F91FF90EF9015
:103BA000DF90CF9008950F931F93CF93DF93EC0195
:103BB000688179818A810E9441238C010E949C2224
:103BC0000E948D21B801CE010E94CB1BDF91CF91C5
:103BD0001F910F910895CF93DF93FC019081818114
:103BE00023813481232B31F08F3F31F481E09F3FDB
:103BF00019F403C081E001C080E080FD0EC0EF0138
:103C0000CF010E94C209882341F0CE010E94D31D3A
:103C1000CE01DF91CF910C948E09DF91CF91089561
:103C20000E9495230E9498230E94B62380E090E092
:103C30000E94081A80E090E00C941E1A80911E01E8
:103C400090911F010E9406250C94101E0E9485234E
:103C50000C941E1EE92FE295EF704E2F50E0FA01F2
:103C60003297EE30F105B0F4EA58FF4F0C94302D46
:103C7000803F91F018F4883E68F40EC0843F51F400
:103C80000BC0883E48F0813F29F406C093FB88278B
:103C900080F9089580E0089581E008950E94362318
:103CA0000E942A1E0895CF93DF9300D000D01F9268
:103CB000CDB7DEB70F900F900F900F900F90DF9160
:103CC000CF910895CF93DF9300D000D000D0CDB72F
:103CD000DEB726960FB6F894DEBF0FBECDBFDF91DC
:103CE000CF9108951F93CF93DF93C0910B0316E0FC
:103CF00080910C03C81799F0D0E01C9FF0011D9F24
:103D0000F00D1124E35FFC4F40815181628173818A
:103D1000848195810E94621E2196C770E9CFDF9150
:103D2000CF911F91089540913D0350913E036091C2
:103D30003F037091400380914103909142030C94A2
:103D4000621E0F931F93CF93DF938091420382955E
:103D50008F7009F05DC080913F03882309F458C03B
:103D600080910B0310910C0360913D0370913E0311
:103D7000C0914003D091410391E06F3F09F090E082
:103D8000292F06E0811709F443C0209721F07F3FD7
:103D900021F030E003C031E001C0322F90E030FD6F
:103DA00034C0089FF001099FF00D1124DF01A35FCB
:103DB000BC4F11963C911197371327C03C91361395
:103DC00024C012963C91129731111FC013964D9149
:103DD0005C9114974C1B5D0B483C5105B0F48091ED
:103DE00042038F70806180934203EE5EFC4F8081BE
:103DF0008F70806180838DE393E00E94EB1DDF91E3
:103E0000CF911F910F910C94721E01968770BACFBB
:103E1000DF91CF911F910F9108959F92AF92BF9222
:103E2000CF92DF92EF92FF920F931F93CF93DF9386
:103E3000CDB7DEB761970FB6F894DEBF0FBECDBF2A
:103E40008C0185E0F801DE011D9601900D928A95A6
:103E5000E1F7F80140815181E28090913D0360914A
:103E60003E0320914003309141032115310531F08B
:103E70006F3F31F481E09F3F19F403C081E001C03E
:103E800080E0F82FF1709F2E80FD46C1F801A380DD
:103E9000B4808DE3C82E83E0D82EF0903F03F50167
:103EA000E21BF30BFF2009F4DFC080914203E83CE2
:103EB000F10508F09BC0282F207F09F052C056134F
:103EC00013C0491311C0FE2CE1100EC08F70806129
:103ED000809342030E94931EC6010E94EB1D8091B5
:103EE0004203F801858358C1AB2831F05F3F31F4BC
:103EF00081E04F3F19F403C081E001C080E080FD04
:103F000003C081E08E2502C080E090E0F82FF170C0
:103F1000FF2E80FF1CC080910B0320910C0336E024
:103F2000821709F417C190E0389FF001399FF00D16
:103F30001124E35FFC4F6181561306C06081461374
:103F400003C06281E61203C001968770E9CFFE2CA0
:103F5000EE2009F421C180914203816080934203E5
:103F60005AC0561306C0491304C0E11002C0F8013C
:103F70009FC04D875E878D859E850E944E1E88233B
:103F800079F1EE2069F120914203822F82958F70A2
:103F900090E0029774F080913D0390913E039887E2
:103FA0008F831986BB86AA862C87CE0107960E942E
:103FB000EB1D86E0F801ADE3B3E001900D928A9528
:103FC000E1F70E94A11E0E94931E0DC0561729F111
:103FD0004D875E878D859E850E944E1E81112CC067
:103FE000C8010E94EB1DFF24F394D6C0282F207F28
:103FF00069F77A2DB98AA88A6E2D89890E94531E85
:104000008DE393E00E94EB1D86E0F60111928A9504
:10401000E9F70E94931EF12CBFC04913D9CFE110DC
:10402000D7CFF8018583C8010E94EB1D86E0F60119
:1040300011928A95E9F7B0C0EE2091F220914203E7
:10404000822F82958F7090E002970CF4B2CF80910E
:104050003D0390913E039A8389831B82BD82AC828B
:104060002E83CE010196A3CFE83CF10508F047C0AE
:10407000FE2CEE2009F4B4CF561330C049132EC0E5
:104080002091420320FD21C0822F82958F70482FFE
:1040900050E041155105C9F0F80125834F30510515
:1040A00041F08F5F982F9295907F822F8F70892B90
:1040B0008583C8010E94EB1D86E0F801ADE3B3E003
:1040C00001900D928A95E1F742C086E0F801ADE3D8
:1040D000B3E001900D928A95E1F75EC04D875E874F
:1040E0008D859E850E944E1E811163CF8091420373
:1040F000816080934203C8010E94EB1D4DC07A2D60
:10410000B98AA88A6E2D89890E94531E86E0F6011D
:1041100011928A95E9F71BC0EE2009F461CF4D8713
:104120005E878D859E850E944E1EF82E882309F499
:1041300057CF86E0F801ADE3B3E001900D928A9588
:10414000E1F78DE393E00E942A1B0E94A11E0E94CA
:10415000931E22C04D875E878D859E850E943623E3
:10416000292F22952F70223028F49F7039F0811169
:1041700005C00BC0243028F49F7049F4805E88305D
:1041800020F0C8010E94EB1D9F2CF92C05C0F801FE
:104190009581907F99F7F9CF8F2D61960FB6F8949E
:1041A000DEBF0FBECDBFDF91CF911F910F91FF906A
:1041B000EF90DF90CF90BF90AF909F9008951F93A6
:1041C000CF93DF93CDB7DEB72C970FB6F894DEBF51
:1041D0000FBECDBF4F83588769877A878B879C87AF
:1041E000CE0107960E940D1F8823D1F09F818885FC
:1041F0002A853B85232B31F08F3F31F481E09F3FAF
:1042000019F403C081E001C080E080FD47C04F8108
:10421000588569857A858B859C850E94621E3EC083
:1042200086E0FE013796DE01119601900D928A9587
:10423000E1F7FF81E8856A857B856115710531F0BD
:10424000EF3F31F481E0FF3F19F403C081E001C08A
:1042500080E080FD23C020910C0330E0C90101966D
:104260008770992740910B0350E084179507F1F16F
:10427000F983EA837D836C8396E0929FD001939FBC
:10428000B00D1124A35FBC4FFE01319601900D9239
:104290009A95E1F780930C030E94721E16E08091BC
:1042A0000B0390910C03891771F1189FC001112421
:1042B000835F9C4F0E940D1F882329F1E0910B031F
:1042C0001E9FF0011124E35FFC4F40815181628108
:1042D0007381848195810E94621E80910B0390E01E
:1042E00001968770992780930B03D9CF0E94261ED1
:1042F00010920C0310920B03EDE3F3E086E0DF0174
:104300001D928A95E9F72C960FB6F894DEBF0FBE82
:10431000CDBFDF91CF911F910895089508950C941A
:104320008E210C948F210E949121609365037093DC
:10433000660380936703909368030C94101E0C949B
:1043400093210F931F9300916503109166032091B1
:10435000670330916803602B712B822B932B1F9185
:104360000F910C9493210F931F930091650310916B
:1043700066032091670330916803602371238223D1
:1043800093231F910F910C9493210F931F930091EE
:1043900065031091660320916703309168036027DD
:1043A0007127822793271F910F910C9493210C94CE
:1043B0008E210E94D72160936103709362038093E2
:1043C0006303909364030C94101E60E070E0CB01D3
:1043D0000C94D9210F931F9341E050E060E070E00E
:1043E0008A019B0104C0000F111F221F331F8A95F1
:1043F000D2F7C901B8011F910F910C94D9210F93E5
:104400001F9341E050E060E070E004C0440F551F8E
:10441000661F771F8A95D2F780916103909162039E
:10442000A0916303B09164038A019B01082B192BAF
:104430002A2B3B2BC901B8011F910F910C94D92154
:104440000F931F9341E050E060E070E004C0440F20
:10445000551F661F771F8A95D2F740955095609536
:1044600070958091610390916203A0916303B09174
:1044700064038A019B01082319232A233B23C901D2
:10448000B8011F910F910C94D9210F931F9341E014
:1044900050E060E070E004C0440F551F661F771FB6
:1044A0008A95D2F78091610390916203A091630392
:1044B000B09164038A019B01082719272A273B270B
:1044C000C901B8011F910F910C94D9210F931F932B
:1044D00000916103109162032091630330916403A2
:1044E000602B712B822B932B1F910F910C94D92150
:1044F0000F931F9300916103109162032091630356
:104500003091640360237123822393231F910F91C1
:104510000C94D9210F931F930091610310916203B2
:1045200020916303309164036027712782279327CA
:104530001F910F910C94D921089528E0929F800D2E
:104540001124E82FE695E695E695877051E001C0C5
:10455000550F8A95EAF785E0E89FF0011124ED5B9D
:10456000FC4F20E030E070E04081CB01022E02C021
:10457000969587950A94E2F7817081958427852323
:10458000842781932F5F3F4F2530310569F70895C8
:1045900028E0929F800D1124682F66956695669598
:1045A000982F977085E0689FB001112440E050E09B
:1045B00080E0FB01E40FF51FED5BFC4F208130E054
:1045C000092E02C0369527950A94E2F72170332709
:1045D000042E01C0220F0A94EAF7822B4F5F5F4F2F
:1045E0004530510531F70895BF92CF92DF92EF9297
:1045F000FF920F931F93CF93DF938C01C0906103C1
:10460000D0906203E0906303F090640380916503AF
:1046100090916603A0916703B0916803C82AD92AD4
:10462000EA2AFB2ACFE1D0E0D701C6010C2E04C054
:10463000B695A795979587950A94D2F780FD04C003
:10464000219790F7B12C07C0BC2EB8018C2F0E9487
:104650001A0A0197A9F38B2DDF91CF911F910F912A
:10466000FF90EF90DF90CF90BF900895CF93DF93AE
:10467000EC010E94F422BE010E941A0ADF91CF9140
:1046800008951F93CF93DF93EB0190910A03992331
:1046900021F0CB010E94362313C0882349F0CB01BF
:1046A0000E94F422182F682FCE010E949D2204C080
:1046B000CB010E94C822182FBE01812F0E941A0A26
:1046C000DF91CF911F91089580916903859585951C
:1046D0008595089580916903877008959091690385
:1046E000977081E009F480E0089580917503089542
:1046F00090917503892B809375030895809590910F
:1047000075038923809375030895109275030895A6
:1047100090917403892B80937403089580959091F0
:104720007403892380937403089510927403089589
:1047300010927303089580916A03089508950C946C
:104740009E230C949F2390916A03981721F08093E5
:104750006A030C94A123089580916A03882329F0A9
:1047600010926A0380E00C94A1230895E0911E0149
:10477000F0911F01809175038083E0911E01F091FB
:104780001F01908180917403892B8083E0911E0129
:10479000F0911F01908180917303892B8083809118
:1047A0006A03882381F0E0911E01F0911F0190813E
:1047B000892B808380911E0190911F010E94C0244B
:1047C00081110E94AC2380911E0190911F010C94D5
:1047D000FD190C949E2398E0899F90011124262BAB
:1047E000209369030E94FF21809169038595859537
:1047F00085950C94E9231092690380E00C94E923D9
:10480000209169038095822380936903982F977084
:1048100079F430E0482F082E000C550B241735078B
:1048200039F08595859585950E9420220C94FB236F
:10483000089580E090E00E94A43021E08C3E9E4FDD
:1048400009F020E0822F089582E090E00C949630E9
:1048500083E090E00C949630CF9384E090E00E9447
:104860009630C82F81E290E00E9496302C2F30E0E5
:10487000A901582BCA01CF910895CF93C92F682F52
:1048800084E090E00E94AA306C2F81E290E0CF910A
:104890000C94AA30AB01BC018FE090E00C94BC30CA
:1048A000AB01BC0183E190E00C94BC3060E070E0AF
:1048B000CB010C94502460E070E0CB010E944A24AC
:1048C0000C9456246CEE7EEF80E090E00E94C8309D
:1048D00060E082E090E00E94AA3060E083E090E037
:1048E0000E94AA301092650310926603109267032B
:1048F0001092680360E084E090E00E94AA3060E0DB
:1049000081E290E00E94AA3060E085E090E00E94A1
:10491000AA3060E086E090E00E94AA306FEF87E066
:1049200090E00E94AA3040E050E0BA0188E090E0B8
:104930000E94BC3060E08DE090E00E94AA3040E030
:1049400050E0BA0188E190E00E94BC3060E087E16D
:1049500090E00E94AA3040E050E0BA018CE190E083
:104960000E94BC3060E080E290E00E94AA300C948B
:104970005B240C946224682F8EE090E00C94AA30A3
:10498000FC01329697E080E0915029F0219122239A
:10499000D9F38F5FF9CF0895662349F0FC01329671
:1049A00008962191621729F0E817F907D1F780E0FE
:1049B000089581E008959C01FC0132969FEF80E00C
:1049C0004191461789F09F3F19F4411101C0982F7A
:1049D0008F5F8630A9F79F3F39F0F901E90FF11D8C
:1049E00097FDFA956283089508959C012A5F3F4FD1
:1049F000FC014281461301C012820196821793077F
:104A0000B9F708950C94DB240C94F524029626E063
:104A1000FC0111922A95E9F7089508950C940D254B
:104A20000C940D25CF930E9410250E94410C0E94EA
:104A30000E25C0E08C2F0E94E20B811104C0CF5FD5
:104A4000C630C1F701C081E0CF9108950C940D25C7
:104A50000C9426250E94282580913F06843049F138
:104A60001092770320E488E190E00FB6F894A895BF
:104A7000809360000FBE2093600080E00E94A9092F
:104A80000E94282583B7817F846083BF83B78160BC
:104A900083BF7894889583B78E7F83BF0FB6F894D1
:104AA000A8958091600088618093600010926000FA
:104AB0000FBE08950C940D250E94261E0E94F11928
:104AC0000E94A9090C945A251F920F920FB60F92BB
:104AD00011248F939F93AF93BF938091770381119C
:104AE00013C08091330690913406A0913506B091A1
:104AF00036064196A11DB11D80933306909334066E
:104B0000A0933506B0933606BF91AF919F918F91D8
:104B10000F900FBE0F901F90189582E084BD93E018
:104B200095BD9AEF97BD80936E0008952FB7F894C6
:104B30008091330690913406A0913506B0913606E7
:104B40002FBF08952FB7F894609133067091340603
:104B500080913506909136062FBF08959C014FB77E
:104B6000F8948091330690913406A0913506B09167
:104B700036064FBF821B930B089578941F920F92B5
:104B80000FB60F9211248F939F93AF93BF93809191
:104B9000330690913406A0913506B0913606019601
:104BA000A11DB11D8093330690933406A093350662
:104BB000B0933606BF91AF919F918F910F900FBE2A
:104BC0000F901F901895E3E0F0E089E08093570084
:104BD000E491F0E0CF018670892B19F080E09FE32B
:104BE0000CC0E2FF03C080E09EE307C0E1FF03C00A
:104BF00080E09CE302C080E098E3909338068093C5
:104C0000370681E08093E00080E28093D800109224
:104C1000C9008FE19EE40197F1F700C0000087E032
:104C200090EBDC018093480690934906A0934A06D6
:104C3000B0934B069CE088E10FB6F894A89580935A
:104C400060000FBE90936000FFCF0E941924811175
:104C500002C00E94B9240E942424809376030E94FB
:104C60002C2490933A06809339060E942824682FBA
:104C700070E080E090E00C949F2180918003089583
:104C80000895CF93DF9300D01F92CDB7DEB79091F8
:104C90003F06943019F589837B836A8382E0809391
:104CA000E9008FEF9091E800815095FD06C095EDE9
:104CB0009A95F1F700008111F5CF8091E80085FF0A
:104CC0000DC040E050E063E070E0CE0101960E942C
:104CD0005E288091E8008E778093E8000F900F9017
:104CE0000F90DF91CF910895CF93DF93EC010E9455
:104CF0004128823011F0843031F4BE0184E0DF912C
:104D0000CF910C944126DF91CF910895BC0183E0AF
:104D10000C944126CF93DF93EC010E94412882300E
:104D200011F0843039F581E08093E9008FEF9091A4
:104D3000E800815095FD06C095ED9A95F1F70000C9
:104D40008111F5CF8091E80085FF14C040E050E06C
:104D500068E070E0CE010E945E288091E8008E77C6
:104D60008093E80088E0FE01A8E7B3E001900D928F
:104D70008A95E1F7DF91CF91089580913E068111E8
:104D800009C00E94EF290E944C2A8091E2008460B1
:104D90008093E200089510923E06089508950895C4
:104DA0000C945C2542E061EC81E00E94682942E2BB
:104DB00061EC82E00C94682980914106833009F40B
:104DC00060C030F4813071F0823009F499C00895E8
:104DD0008A3009F485C08B3009F46BC0893009F042
:104DE000A7C020C080914006813A09F0A1C08091FF
:104DF000E800877F8093E800809144069091450603
:104E0000892B21F468E088E793E003C060E080E04C
:104E100090E070E00E94A9288091E8008B77809351
:104E2000E800089580914006813209F081C08091A8
:104E3000440690914506029708F07AC08091E800F8
:104E4000877F8093E8008091E80082FD05C0809113
:104E50003F068111F8CF6CC02091F3008091F200E1
:104E600090E0922B029729F48091F1008B7F8130A2
:104E700021F48091F100809380038091E8008B778A
:104E800053C080914006813A09F052C08091440697
:104E900090914506892B09F04BC08091E800877FEF
:104EA0008093E8008091E80080FFFCCF80912A0188
:104EB00036C0809140068132D9F5809144069091A8
:104EC0004506892BA9F58091E800877F8093E8004B
:104ED0000E949D298091420680932A010C94261EEF
:104EE00080914006813221F58091E800877F809390
:104EF000E8000E949D2980914306809381030895D4
:104F000080914006813AA1F48091E800877F8093E8
:104F1000E8008091E80080FFFCCF809181038093BE
:104F2000F1008091E8008E778093E8000C949D2931
:104F3000089584B7877F84BF0FB6F894A8958091B1
:104F40006000886180936000109260000FBE90E066
:104F500080E80FB6F89480936100909361000FBED3
:104F60000E94441A0E94EF290E944C2A8091E2007C
:104F700084608093E20078940E94E12C0E944E1A93
:104F800080E291E00E94EC1980913F06853069F43F
:104F90000E942A2580913D068823B1F30E941225A4
:104FA000882391F30E944828EFCF0E945B1AECCF30
:104FB0000C94DA27292F332723303105C9F060F408
:104FC0002130310581F02230310509F04AC08BE3F0
:104FD00090E020E43AE049C02132310511F122325B
:104FE000310579F13EC082E190E02BE73AE03DC027
:104FF00099278130910561F040F08230910559F098
:10500000039779F5EAE1FAE008C0ECE3FAE005C0BD
:10501000E0E3FAE002C0E0E2FAE0849190E09F0170
:1050200024C06115710541F061307105D1F489E04A
:1050300090E02BE63AE019C089E090E022E53AE002
:1050400014C06115710541F06130710551F482E3BE
:1050500090E02DE83AE009C080E490E02FEB3AE0E0
:1050600004C080E090E020E030E0FA01318320834A
:10507000089580913F06843011F081E0089582E028
:10508000089580918203811102C00C9439280895FB
:1050900080E189BD82E189BD09B400FEFDCF809128
:1050A000D8008F7D8093D8008091E000826080934B
:1050B000E0008091E00081FDFCCF0895CF92DF9267
:1050C000EF92FF920F931F93CF93DF93EC018B012D
:1050D0007A010E94BC29811133C0E114F10439F036
:1050E000F70180819181081B190BC80FD91FC12CB2
:1050F000D12C0115110519F18091E80085FD16C02C
:105100008091E8008E778093E800E114F10449F083
:10511000F70180819181C80ED91ED182C08285E0BD
:105120000FC00E94BC29882321F30AC08991809373
:10513000F10001501109FFEFCF1ADF0ADACF80E04A
:10514000DF91CF911F910F91FF90EF90DF90CF9063
:10515000089520914606309147062617370748F0F4
:105160006115710539F42091E8002E772093E8004D
:1051700001C0B901FC0120E06115710579F1809150
:105180003F068823F1F18530F1F18091E80083FD3D
:105190003CC08091E80082FD2EC08091E80080FF35
:1051A000EBCF2091F3008091F20090E0922B6115FB
:1051B000710551F08830910538F421912093F10068
:1051C000615071090196F3CF21E0089709F020E0C2
:1051D0008091E8008E778093E800CECF2111CFCF69
:1051E0000AC080913F06882361F0853061F080918C
:1051F000E80083FD0AC08091E80082FFF2CF80E0E2
:10520000089582E0089583E0089581E00895209153
:105210004606309147062617370748F06115710595
:1052200039F42091E8002E772093E80001C0B901FD
:10523000FC0120E06115710591F180913F06882302
:1052400009F440C0853009F43FC08091E80083FD37
:105250003DC08091E80082FD2FC08091E80080FF72
:10526000E9CF2091F3008091F20090E0922B61153C
:10527000710559F08830910540F424912093F10094
:105280003196615071090196F2CF21E0089709F03B
:1052900020E08091E8008E778093E800CBCF211149
:1052A000CCCF0AC080913F06882361F0853061F041
:1052B0008091E80083FD0AC08091E80082FFF2CF70
:1052C00080E0089582E0089583E0089581E00895E4
:1052D000982F973068F59093E900981739F07091FE
:1052E000EC002091ED005091F00003C0242F762FA8
:1052F00050E021FD02C09F5FECCF3091EB003E7F7C
:105300003093EB003091ED003D7F3093ED00309114
:10531000EB0031603093EB007093EC002093ED00D4
:105320005093F0002091EE0027FDE5CF80E0089536
:105330008F708093E90081E008958091400687FF97
:1053400011C08091E80082FD05C080913F06811167
:10535000F8CF11C08091E8008B770BC080913F0699
:10536000882349F08091E80080FFF8CF8091E80021
:105370008E778093E80008952091E4003091E50055
:1053800095E64091EC00842F817040FF23C080910E
:10539000E80080FD1DC080913F06882399F085308C
:1053A00099F08091EB0085FD11C04091E40050918F
:1053B000E5002417350729F3915011F09A01E1CF48
:1053C00084E0089582E0089583E0089581E00895DF
:1053D00080E008954091E80042FFDDCF08950E94EB
:1053E0005D2A0E94652AE0EEF0E080818160808382
:1053F000E8EDF0E080818F77808319BCA7EDB0E005
:105400008C918E7F8C9380818F7E808310923E065C
:1054100008950F931F93CF93DF930E945D2A0E94FC
:10542000652AC8EDD0E088818F778883888180687D
:10543000888388818F7D888319BC10923F061092E3
:105440003B0610923D0610923C0600EE10E0F8017B
:1054500080818B7F808388818160888342E060E0E7
:1054600080E00E946829E1EEF0E080818E7F8083F9
:10547000E2EEF0E0808181608083808188608083BB
:10548000F80180818E7F8083888180618883DF91AD
:10549000CF911F910F910895E8EDF0E080818F7E0C
:1054A0008083E7EDF0E080818160808384E082BFCB
:1054B00081E080933E060C94092AE8EDF0E08081BB
:1054C0008E7F80831092E20008951092DA0010928D
:1054D000E10008951F920F920FB60F9211242F939F
:1054E0003F934F935F936F937F938F939F93AF936C
:1054F000BF93EF93FF938091E10082FF0BC08091F7
:10550000E20082FF07C08091E1008B7F8093E10081
:105510000E94E02C8091DA0080FF1FC08091D800AB
:1055200080FF1BC08091DA008E7F8093DA0080912B
:10553000D90080FF0DC080E189BD82E189BD09B439
:1055400000FEFDCF81E080933F060E94BD2605C08E
:1055500019BC10923F060E94CB268091E10080FF8B
:1055600019C08091E20080FF15C08091E2008E7F1B
:105570008093E2008091E20080618093E20080915C
:10558000D80080628093D80019BC85E080933F06E4
:105590000E94CF268091E10084FF30C08091E2001C
:1055A00084FF2CC080E189BD82E189BD09B400FE81
:1055B000FDCF8091D8008F7D8093D8008091E1004D
:1055C0008F7E8093E1008091E2008F7E8093E200E5
:1055D0008091E20081608093E20080913B06882305
:1055E00011F084E007C08091E30087FD02C081E0F4
:1055F00001C083E080933F060E94D0268091E100A5
:1056000083FF29C08091E20083FF25C08091E100E3
:10561000877F8093E10082E080933F0610923B06F3
:105620008091E1008E7F8093E1008091E2008E7F87
:105630008093E2008091E20080618093E20042E08A
:1056400060E080E00E9468298091F000886080938B
:10565000F0000E94CE26FF91EF91BF91AF919F91F4
:105660008F917F916F915F914F913F912F910F900B
:105670000FBE0F901F9018951F920F920FB60F92AA
:1056800011242F933F934F935F936F937F938F9347
:105690009F93AF93BF93CF93DF93EF93FF93C0910B
:1056A000E900CF708091EC00D82FD17080FDD0E858
:1056B0001092E9008091F000877F8093F000789449
:1056C0000E94802B1092E9008091F0008860809306
:1056D000F000CD2BCF70C093E900FF91EF91DF91E7
:1056E000CF91BF91AF919F918F917F916F915F917A
:1056F0004F913F912F910F900FBE0F901F901895D3
:105700001F93CF93DF93CDB7DEB7AA970FB6F89468
:10571000DEBF0FBECDBFE0E4F6E08091F1008193E3
:1057200026E0E834F207C9F70E94DC268091E80001
:1057300083FF2EC18091400690914106492F50E091
:105740004A30510508F024C1FA01EC57FF4F0C9480
:10575000302D803821F0823809F01AC108C08091BC
:105760003C0690913D06992389F082600FC080919C
:1057700044068F70873008F00BC18093E900809158
:10578000EB0085FB882780F91092E9009091E800F2
:10579000977F9093E8008093F1001092F100D1C0C0
:1057A000282F2D7F09F0F4C0882319F0823061F092
:1057B000EFC080914206813009F0EAC0933009F0D1
:1057C00080E080933D062EC08091420681112AC060
:1057D000809144068F702FEF280F263008F0D8C034
:1057E0008093E9002091EB0020FF1CC0933021F44E
:1057F0008091EB00806214C09091EB0090619093D7
:10580000EB0021E030E0A90102C0440F551F8A954A
:10581000E2F74093EA001092EA008091EB00886082
:105820008093EB001092E9008091E800877F8093DD
:10583000E8000E949D29ACC08111AAC010914206C7
:105840001F778091E3008078812B8093E300809123
:10585000E800877F8093E8000E949D298091E800FE
:1058600080FFFCCF8091E30080688093E3001111FA
:1058700002C082E001C083E080933F0689C0805867
:10588000823008F085C080914206909143068C3D9D
:1058900053E0950779F583E08A838AE289834FB7DD
:1058A000F894DE01139620E03EE051E2E32FF0E0B1
:1058B00050935700E49120FF03C0E295EF703F5FE3
:1058C000EF708E2F90E0EA3010F0C79601C0C096BE
:1058D0008D939D932F5F243149F74FBF8091E8004E
:1058E000877F8093E8006AE270E0CE0101960E9413
:1058F000A92816C06091440670914506AE014F5F1D
:105900005F4F0E94D827BC01892B09F441C09091B8
:10591000E800977F9093E80089819A810E94072987
:105920008091E8008B778093E80032C0803881F561
:105930008091E800877F8093E80080913B06809308
:10594000F1008091E8008E7772CF811121C08091A3
:1059500042069091430699270297D4F48091E8007B
:10596000877F8093E8008091420680933B060E94E7
:105970009D2980913B06811106C08091E30087FD3F
:1059800002C081E001C084E080933F060E94D226DD
:105990008091E80083FF0AC08091E800877F8093B0
:1059A000E8008091EB0080628093EB00AA960FB62E
:1059B000F894DEBF0FBECDBFDF91CF911F91089548
:1059C0000895CF9380913F068823A1F0C091E9000C
:1059D000CF709091EC00892F817090FD80E8C82BEA
:1059E0001092E9008091E80083FD0E94802BCF7027
:1059F000C093E900CF910895991B79E004C0991FE5
:105A0000961708F0961B881F7A95C9F78095089518
:105A1000AA1BBB1B51E107C0AA1FBB1FA617B707D4
:105A200010F0A61BB70B881F991F5A95A9F78095F0
:105A30009095BC01CD01089597FB072E16F40094B4
:105A400007D077FD09D00E94082D07FC05D03EF451
:105A5000909581959F4F0895709561957F4F08951A
:105A6000EE0FFF1F0590F491E02D09948F929F9205
:105A7000AF92BF92CF92DF92EF92FF92CF93DF93DC
:105A8000EC01688179818A819B81611571058105AD
:105A9000910521F464E279ED8BE597E02DE133EF98
:105AA00041E050E00E94DE3049015A019B01AC0107
:105AB000A7EAB1E40E94FD306B017C01ACEEB4EFCB
:105AC000A50194010E940B31DC01CB018C0D9D1DC1
:105AD000AE1DBF1DB7FF03C00197A109B048888361
